:100000000C942A000C943F000C943F000C943F0089
:100010000C943F000C943F000C943F000C943F0064
:100020000C943F000C943F000C943F000C943F0054
:100030000C943F000C943F000C943F000C943F0044
:100040000C943F000C943F000C943F000C943F0034
:100050000C943F0011241FBECFE5D4E0DEBFCDBF1E
:1000600010E0A0E6B0E0E4EDFDE002C005900D92E6
:10007000A238B107D9F70E949F000C94E8060C94AF
:10008000000085BB88B3877E88BBC59A82E08A95CD
:10009000F1F700C0C5988FE697E10197F1F700C02E
:1000A0000000089585BBC49888B3886288BB82E04D
:1000B0008A95F1F700C0C5988FEC97E00197F1F7AA
:1000C00000C00000089587B3886387BB8FEF84BBAF
:1000D0008FE39CE90197F1F700C0000088E30E94DC
:1000E00041008CE00E94410086E00E94410081E0D6
:1000F0000E94410080E80C944100CF93DF93EC0113
:100100008991882319F00E945200FACFDF91CF9194
:1001100008951ABA87E886B980E487B90895877088
:10012000806487B9369A349BFECF349A8FEC97E07F
:100130000197F1F700C0000084B195B10895CF9305
:10014000DF93CDB7DEB764970FB6F894DEBF0FBE6E
:10015000CDBF0E9463000E9489008D9A889A1DBCC1
:100160001CBC83EC99E097BD86BD82E88FBD8BE116
:100170008EBD80E80E94410080E690E00E947D00F4
:1001800080EC0E9441008BE690E00E947D008E0191
:10019000055F1F4FCE0101967C0196E7C92E90E0C6
:1001A000D92E2EE7222E20E0322E80E00E948F00F2
:1001B000BC01990F880B990B0E94DC0223E333E307
:1001C0004BE850E40E94320220E030E042E852E482
:1001D0000E94C1010E94AB027BBD6ABD80E00E940B
:1001E0008F005C0181E00E948F00BC01990F880B99
:1001F000990B0E94DC0226EF38E24CE950E40E94A1
:10020000910320E030E040E251E40E9432022B01F1
:100210003C0120E030E04CE552E40E948C031816CB
:10022000ACF0B501BB0C880B990B0E94DC0223E3F8
:1002300033E34BE850E40E94320222E73CE147EA14
:100240005FE30E9432024B015C015FC081E082BB30
:10025000ECE2F1E0FBBDEABD81E00E948F00BC0151
:10026000990F880B990B0E94DC0226EF38E24CE9CB
:1002700050E40E94910320E030E040E251E40E940B
:1002800032022B013C011F92FFEDFF930E94A4025A
:100290007F936F93DF92CF921F930F930E94FE0381
:1002A0008BE80E944100C8010E947D001F9224EB50
:1002B0002F933F922F92FF92EF920E94FE038BECBE
:1002C0000E944100C7010E947D008FEF94E3ECE0A3
:1002D00081509040E040E1F700C000000FB6F89474
:1002E000DEBF0FBECDBF20E030E04CE552E4C301DD
:1002F000B2010E942D0218160CF4AECF12BA812C56
:10030000912C84E3A82E83E4B82E1F929FED9F9337
:10031000C301B2010E94A4027F936F93DF92CF9238
:100320001F930F930E94FE038BE80E944100C801B7
:100330000E947D00C501B4010E94A4027F936F93C7
:100340003F922F92FF92EF920E94FE038BEC0E944D
:100350004100C7010E947D00EFEFF4E32CE0E15083
:10036000F0402040E1F700C00000F8012AE01192BF
:100370002A95E9F70FB6F894DEBF0FBECDBF15CFB3
:100380005058BB27AA270E94D8010C9452030E9400
:10039000440338F00E944B0320F039F49F3F19F4D6
:1003A00026F40C9441030EF4E095E7FB0C943B0318
:1003B000E92F0E94630358F3BA1762077307840793
:1003C000950720F079F4A6F50C9485030EF4E095DA
:1003D0000B2EBA2FA02D0B01B90190010C01CA01FF
:1003E000A0011124FF27591B99F0593F50F4503EAA
:1003F00068F11A16F040A22F232F342F4427585F9C
:10040000F3CF469537952795A795F0405395C9F7B3
:100410007EF41F16BA0B620B730B840BBAF091506B
:10042000A1F0FF0FBB1F661F771F881FC2F70EC00A
:10043000BA0F621F731F841F48F4879577956795DD
:10044000B795F7959E3F08F0B0CF9395880F08F0C9
:100450009927EE0F9795879508950E94170308F442
:1004600081E008950E9446020C9452030E944B03BF
:1004700058F00E94440340F029F45F3F29F00C94A7
:100480003B0351110C9486030C9441030E946303B7
:1004900068F39923B1F3552391F3951B550BBB27B3
:1004A000AA2762177307840738F09F5F5F4F220FF8
:1004B000331F441FAA1FA9F335D00E2E3AF0E0E8EF
:1004C00032D091505040E695001CCAF72BD0FE2F39
:1004D00029D0660F771F881FBB1F261737074807CD
:1004E000AB07B0E809F0BB0B802DBF01FF27935885
:1004F0005F4F3AF09E3F510578F00C943B030C940B
:1005000086035F3FE4F3983ED4F38695779567952D
:10051000B795F7959F5FC9F7880F911D96958795B9
:1005200097F90895E1E0660F771F881FBB1F6217D8
:1005300073078407BA0720F0621B730B840BBA0B96
:10054000EE1F88F7E09508950E94AB026894B11100
:100550000C94860308950E946B0388F09F5798F0CF
:10056000B92F9927B751B0F0E1F0660F771F881FB8
:10057000991F1AF0BA95C9F714C0B13091F00E94D2
:100580008503B1E008950C948503672F782F8827A1
:10059000B85F39F0B93FCCF3869577956795B395F9
:1005A000D9F73EF490958095709561957F4F8F4F68
:1005B0009F4F0895E89409C097FB3EF4909580956D
:1005C000709561957F4F8F4F9F4F9923A9F0F92F19
:1005D00096E9BB279395F695879577956795B79597
:1005E000F111F8CFFAF4BB0F11F460FF1BC06F5F7D
:1005F0007F4F8F4F9F4F16C0882311F096E911C08F
:10060000772321F09EE8872F762F05C0662371F0AF
:1006100096E8862F70E060E02AF09A95660F771FC3
:10062000881FDAF7880F9695879597F90895990F9F
:100630000008550FAA0BE0E8FEEF16161706E807AC
:10064000F907C0F012161306E407F50798F0621BCD
:10065000730B840B950B39F40A2661F0232B242BA2
:10066000252B21F408950A2609F4A140A6958FEFC1
:10067000811D811D089597F99F6780E870E060E013
:1006800008959FEF80EC089500240A94161617062B
:1006900018060906089500240A9412161306140673
:1006A00005060895092E0394000C11F4882352F0D6
:1006B000BB0F40F4BF2B11F460FF04C06F5F7F4F8E
:1006C0008F4F9F4F089557FD9058440F551F59F075
:1006D0005F3F71F04795880F97FB991F61F09F3F2F
:1006E00079F087950895121613061406551FF2CF58
:1006F0004695F1DF08C0161617061806991FF1CFA8
:1007000086957105610508940895E894BB276627CE
:100710007727CB0197F908950E94170308F48FEF0C
:1007200008950E94A4030C9452030E94440338F0DD
:100730000E944B0320F0952311F00C943B030C9482
:10074000410311240C9486030E94630370F3959F68
:10075000C1F3950F50E0551F629FF001729FBB27B8
:10076000F00DB11D639FAA27F00DB11DAA1F649F54
:100770006627B00DA11D661F829F2227B00DA11D07
:10078000621F739FB00DA11D621F839FA00D611D8D
:10079000221F749F3327A00D611D231F849F600DAE
:1007A000211D822F762F6A2F11249F5750409AF0D7
:1007B000F1F088234AF0EE0FFF1FBB1F661F771F63
:1007C000881F91505040A9F79E3F510580F00C942E
:1007D0003B030C9486035F3FE4F3983ED4F3869585
:1007E00077956795B795F795E7959F5FC1F7FE2BCE
:1007F000880F911D9695879597F90895AEE0B0E022
:10080000E4E0F4E00C94BF060D891E8986E08C8339
:100810001A8309838FEF9FE79E838D83AE01475E26
:100820005F4F6F89788DCE0101960E942004EF8181
:10083000F885E00FF11F10822E96E4E00C94DB06A1
:10084000ABE0B0E0E6E2F4E00C94B1066C017B01B1
:100850008A01FC0117821682838181FFCCC1CE01FF
:1008600001963C01F6019381F70193FD859193FF79
:1008700081917F01882309F4BAC1853239F493FD4F
:10088000859193FF81917F01853229F4B60190E033
:100890000E941706E7CF912C212C312CFFE1F31594
:1008A000D8F08B3279F038F4803279F08332A1F4C9
:1008B000232D20611DC08D3261F0803369F4232D1A
:1008C000216016C0832D8260382EE32DE4603E2E19
:1008D0002AC0F32DF8601DC037FC2DC020ED280F75
:1008E0002A3040F08E32B9F436FC81C1232D2064C9
:1008F000322E19C036FE06C08AE0989E200D1124C3
:10090000922E11C0EAE02E9E200D1124222EF32DEE
:10091000F0623F2E08C08C3621F4832D8068382E7B
:1009200002C0883641F4F70193FD859193FF8191D0
:100930007F018111B3CF982F9F7D9554933028F478
:100940000C5F1F4F9FE399830DC0833631F08337CF
:1009500071F0833509F059C021C0F8018081898385
:100960000E5F1F4F88248394912C530113C02801DC
:10097000F2E04F0E511CF801A080B18036FE03C09A
:10098000692D70E002C06FEF7FEFC5010E940C0679
:100990004C018201F32DFF773F2E16C0280122E083
:1009A000420E511CF801A080B18036FE03C0692DB3
:1009B00070E002C06FEF7FEFC5010E9401064C019D
:1009C000F32DF0683F2E820133FC1BC0822D90E096
:1009D00088169906B0F4B60180E290E00E941706EE
:1009E0002A94F4CFF50137FC859137FE81915F01A0
:1009F000B60190E00E94170621102A9421E0821A85
:100A000091088114910471F7E8C0843611F0893699
:100A100041F5F80137FE07C06081718182819381C1
:100A20000C5F1F4F08C060817181072E000C880B7E
:100A3000990B0E5F1F4FF32DFF763F2E97FF09C0D6
:100A400090958095709561957F4F8F4F9F4FF0687F
:100A50003F2E2AE030E0A3010E945306882E86181C
:100A600045C0853731F4232D2F7EB22E2AE030E0A9
:100A700025C0932D997FB92E8F36C1F018F4883593
:100A800079F0B5C0803719F0883721F0B0C0E92F70
:100A9000E061BE2EB4FE0DC0FB2DF460BF2E09C078
:100AA00034FE0AC0292F2660B22E06C028E030E0AE
:100AB00005C020E130E002C020E132E0F801B7FEDD
:100AC00007C060817181828193810C5F1F4F06C0D6
:100AD0006081718180E090E00E5F1F4FA3010E9452
:100AE0005306882E8618FB2DFF773F2E36FE0DC04D
:100AF000232D2E7FA22E891458F434FE0BC032FC15
:100B000009C0832D8E7EA82E05C0B82CA32C03C04F
:100B1000B82C01C0B92CA4FE0FC0FE01E80DF11DD8
:100B20008081803321F49A2D997EA92E09C0A2FEDE
:100B300006C0B394B39404C08A2D867809F0B394A8
:100B4000A3FC11C0A0FE06C0B21488F4280C922C9D
:100B50009B180EC0B21460F4B60180E290E00E94CF
:100B60001706B394F7CFB21418F42B1802C0982CC0
:100B7000212CA4FE10C0B60180E390E00E9417066D
:100B8000A2FE17C0A1FC03C088E790E002C088E580
:100B900090E0B6010CC08A2D867859F0A1FE02C003
:100BA0008BE201C080E2A7FC8DE2B60190E00E94DA
:100BB0001706891438F4B60180E390E00E94170606
:100BC0009A94F7CF8A94F301E80DF11D8081B60164
:100BD00090E00E9417068110F5CF222009F442CE42
:100BE000B60180E290E00E9417062A94F6CFF60143
:100BF0008681978102C08FEF9FEF2B96E2E10C94E4
:100C0000CD06FC010590615070400110D8F7809529
:100C100090958E0F9F1F0895FC01615070400190C8
:100C20000110D8F7809590958E0F9F1F08950F9310
:100C30001F93CF93DF93FB01238121FD03C08FEF2F
:100C40009FEF2CC022FF16C0468157812481358139
:100C50004217530744F4A081B1819D012F5F3F4F9C
:100C6000318320838C93268137812F5F3F4F3783D9
:100C7000268314C08B01EC01FB010084F185E02D7B
:100C80000995892BE1F6D80116968D919C911797BD
:100C9000019617969C938E931697CE01DF91CF9174
:100CA0001F910F910895FA01AA27283051F12031A0
:100CB00081F1E8946F936E7F6E5F7F4F8F4F9F4FF0
:100CC000AF4FB1E03ED0B4E03CD0670F781F891F32
:100CD0009A1FA11D680F791F8A1F911DA11D6A0F00
:100CE000711D811D911DA11D20D009F468943F91B3
:100CF0002AE0269F11243019305D3193DEF6CF01B2
:100D00000895462F4770405D4193B3E00FD0C9F777
:100D1000F6CF462F4F70405D4A3318F0495D31FDE4
:100D20004052419302D0A9F7EACFB4E0A695979537
:100D3000879577956795BA95C9F70097610571050D
:100D400008959B01AC010A2E069457954795379557
:100D50002795BA95C9F7620F731F841F951FA01DB1
:100D600008952F923F924F925F926F927F928F924F
:100D70009F92AF92BF92CF92DF92EF92FF920F932A
:100D80001F93CF93DF93CDB7DEB7CA1BDB0B0FB634
:100D9000F894DEBF0FBECDBF09942A8839884888F1
:100DA0005F846E847D848C849B84AA84B984C88487
:100DB000DF80EE80FD800C811B81AA81B981CE0F7E
:100DC000D11D0FB6F894DEBF0FBECDBFED01089563
:040DD000F894FFCFC5
:100DD4004E6869657420646F3A2000476F63207120
:100DE4007561793A20002564256343202000256439
:020DF4000000FD
:00000001FF
